:100000000C9434000C943E000C943E000C943E0082
:100010000C943E000C943E000C943E000C943E0068
:100020000C943E000C943E000C943E000C943E0058
:100030000C943E000C943E000C943E000C943E0048
:100040000C943E000C943E000C943E000C943E0038
:100050000C943E000C947F000C943E000C943E00E7
:100060000C943E000C943E0011241FBECFEFD8E04C
:10007000DEBFCDBF0E9459000C949B000C94000081
:10008000ECE7F0E080818F7380838081807F8560E2
:100090008083EAE7F0E080818068808380818760E8
:1000A000808380818F7D8083808188608083789445
:1000B00008950E9440008AB18FEF8AB984B18362AB
:1000C00084B9EAE7F0E080818064808385B1806252
:1000D00085B92FEF89E698E1215080409040E1F703
:1000E00000C0000085B18F7D85B92FEF89E698E1CA
:1000F000215080409040E1F700C00000E2CF1F9205
:100100000F920FB60F9211248F939F93EF93FF934B
:10011000E8E7F0E0808191818BB98081918185B1A0
:10012000892B85B9FF91EF919F918F910F900FBE11
:0A0130000F901F901895F894FFCF70
:00000001FF
