S015000074696D657231636F6D706172652E73726563D6
S11300000C9434000C9446000C9446000C94460066
S11300100C9446000C9446000C9446000C94460044
S11300200C9446000C9446000C9446000C946F000B
S11300300C9446000C9446000C9446000C94460024
S11300400C9446000C9446000C9446000C94460014
S11300500C9446000C9446000C9446000C94460004
S11300600C9446000C94460011241FBECFEFD8E038
S1130070DEBFCDBF21E0A0E0B1E001C01D92A230FF
S1130080B207E1F70E9448000C949A000C94000017
S1130090EFE6F0E0808182608083E1E8F0E0808137
S11300A08860808380818F7E8083A0E8B0E08C911B
S11300B08C7F8C9380818460808380818C7F80831B
S11300C0109285001092840084EF8093890084E26A
S11300D080938800789484B1806284B9FFCF1F92A2
S11300E00F920FB60F9211242F933F938F939F93E8
S11300F08091000190910101892B21F085B18062EA
S113010085B903C085B18F7D85B9209100013091F7
S1130110010181E090E0821B930B90930101809395
S113012000019F918F913F912F910F900FBE0F90DF
S10B01301F901895F894FFCF0D
S9030000FC
