:100000000C9434000C943E000C943E000C943E0082
:100010000C943E000C943E000C943E000C943E0068
:100020000C943E000C943E000C943E000C943E0058
:100030000C943E000C943E000C943E000C943E0048
:100040000C943E000C943E000C943E000C943E0038
:100050000C943E000C943E000C943E000C943E0028
:100060000C943E000C943E0011241FBECFEFD8E04C
:10007000DEBFCDBF0E9461000C9477000C9400009D
:1000800087E68093C4001092C500E1ECF0E0808127
:1000900088608083808180618083E2ECF0E08081F1
:1000A0008660808308959091C00095FFFCCF809377
:1000B000C60008958091C0008823E4F78091C600AF
:1000C00008950E94400084B1806284B985B1806245
:1000D00085B90E945A000E9453002FEF84E39CE0F0
:1000E000215080409040E1F700C00000F2CFF8942A
:0200F000FFCF40
:00000001FF
