S01E00004C4544426C696E6B5769687450757368427574746F6E2E7372656389
S11300000C9434000C943E000C943E000C943E007E
S11300100C943E000C943E000C943E000C943E0064
S11300200C943E000C943E000C943E000C943E0054
S11300300C943E000C943E000C943E000C943E0044
S11300400C943E000C943E000C943E000C943E0034
S11300500C943E000C943E000C943E000C943E0024
S11300600C943E000C943E0011241FBECFEFD8E048
S1130070DEBFCDBF0E9440000C9450000C940000E1
S113008084B1806284B98AB1877F8AB94B9B04C0EA
S113009085B1806285B9FACF85B18F7D85B9F6CFF8
S10700A0F894FFCFFE
S9030000FC
