:100000000C9434000C9449000C9458000C94490052
:100010000C9449000C9449000C9449000C9449003C
:100020000C9449000C9449000C9449000C9449002C
:100030000C9449000C9449000C9449000C9449001C
:100040000C9449000C9449000C9449000C9449000C
:100050000C9449000C9449000C9449000C944900FC
:100060000C9449000C94490011241FBECFEFD8E036
:10007000DEBFCDBF11E0A0E0B1E0EAE0F1E002C0F8
:1000800005900D92A230B107D9F70E944B000C9455
:1000900083000C94000084B1806284B9E9E6F0E04A
:1000A00080818C6080838DB382608DBB7894FFCF1C
:1000B0001F920F920FB60F9211242F933F938F939D
:1000C0009F938091000190910101892B21F085B1CE
:1000D000806285B903C085B18F7D85B9209100010B
:1000E0003091010181E090E0821B930B909301011C
:1000F000809300019F918F913F912F910F900FBEA0
:0A0100000F901F901895F894FFCFA0
:02010A000100F2
:00000001FF
