:100000000C9434000C9449000C9449000C94490061
:100010000C9449000C9449000C9449000C9449003C
:100020000C9449000C9449000C9449000C9449002C
:100030000C9449000C9449000C9449000C9449001C
:100040000C9449000C9449000C9449000C9449000C
:100050000C9449000C9449000C9449000C944900FC
:100060000C9449000C94490011241FBECFEFD8E036
:10007000DEBFCDBF11E0A0E0B1E0ECE4F1E002C0F2
:1000800005900D92A830B107D9F70E9478000C9422
:10009000A4000C94000087E68093C4001092C50071
:1000A000E0ECF0E080818D7F8083E1ECF0E0808106
:1000B0008860808380818B7F8083E2ECF0E08081A8
:1000C0008660808308958091C00085FF02C081E032
:1000D000089580E00895CF93C82F0E94630088237D
:1000E000E1F30E9463008111C093C600CF9108958F
:1000F000CF93DF93CDB7DEB727970FB6F894DEBF67
:100100000FBECDBF0E944B0084B1806284B987E0EE
:10011000E0E0F1E0DE01119601900D928A95E1F7A1
:1001200080E285B900E010E00BC0E1E0F0E0EC0F08
:10013000FD1FE00FF11F80810E946B000F5F1F4FBA
:0C0140000730110594F3ECCFF894FFCFCA
:08014C004553443633353200FF
:00000001FF
