:100000000C9434000C943E000C943E000C943E0082
:100010000C943E000C943E000C943E000C943E0068
:100020000C943E000C943E000C943E000C943E0058
:100030000C943E000C943E000C943E000C943E0048
:100040000C943E000C943E000C943E000C943E0038
:100050000C943E000C943E000C943E000C943E0028
:100060000C943E000C943E0011241FBECFEFD8E04C
:10007000DEBFCDBF0E9440000C9466000C940000CF
:10008000ECE7F0E080818F7380838081807F8083C4
:10009000EAE7F0E0808180688083808187608083E8
:1000A00080818F7D80838AB18FEF8AB9EAE7F0E0A3
:1000B00080818064808305C0809178009091790070
:1000C0008BB980917A0086FDF7CFF0CFF894FFCFFF
:00000001FF
